:040000004DEF00F0D0
:100008001C82E9CF0CF0EACF0DF0F6CF0EF0F7CF57
:100018000FF0F8CF10F0F5CF11F09EAA16EF00F010
:1000280018EF00F03FEF00F0AECF1BF0610E1B1889
:10003800D8B421EF00F023EF00F02CEF00F0620EAF
:100048001B18D8A42AEF00F02CEF00F03FEF00F0C7
:10005800010E036E000E67EC09F0C00E036E000E71
:1000680067EC09F01B500A6E0B6A0AC005F00BC05A
:1000780006F09BEC08F011C0F5FF10C0F8FF0FC0A8
:10008800F7FF0EC0F6FF0DC0EAFF0CC0E9FF1C9297
:06009800110076EF09F0F3
:101000000045535031324620546573742044617456
:031010006100007C
:10101400030E176E080E166E770EE82EFED7162EE8
:10102400FCD7172EFAD70000300E146E000E58ECC1
:1010340009F01A0E166EF80EE82EFED7162EFCD7FF
:1010440000D0300E146E000E58EC09F01A0E166E15
:10105400F80EE82EFED7162EFCD700D0300E146EF4
:10106400000E58EC09F0020E146E000E58EC09F054
:10107400060E146E000E58EC09F00F0E146E000EDE
:1010840058EC09F0280E146E000E58EC09F0010E0D
:10109400146E000E58EC09F0030E176E080E166E4F
:1010A400770EE82EFED7162EFCD7172EFAD700009F
:1010B4001200000E1A6E7BEF08F01A501624186EF8
:1010C400000E1720196E18C0F6FF19C0F7FF000EA6
:1010D400F86E0F0EF76403D00800F55005D0F6CF74
:1010E400E9FFF7CFEAFFEF50146E010E58EC09F058
:1010F4001A2A1A501624186E000E1720196E18C0DA
:10110400F6FF19C0F7FF000EF86E0F0EF76403D058
:101114000800F55005D0F6CFE9FFF7CFEAFFEF500E
:101124000009D8A498EF08F09AEF08F05FEF08F0F0
:101134001200000E096EBBEF08F009500524076E7B
:10114400000E0620086E07C0F6FF08C0F7FF000E69
:10115400F86E0F0EF76403D00800F55005D0F6CFF3
:10116400E9FFF7CFEAFFEF50036E010E67EC09F0D9
:10117400092A09500524076E000E0620086E07C0D0
:10118400F6FF08C0F7FF000EF86E0F0EF76403D0E9
:101194000800F55005D0F6CFE9FFF7CFEAFFEF508E
:1011A4000009D8A4D8EF08F0DAEF08F09FEF08F0B0
:1011B4001200720ED36E000E0F013A6F000E3B6FD9
:1011C400000E3C6F9498949A000E956E000E966EE5
:1011D4008B988B9A000E8C6E000E8D6EF28EF28CB4
:1011E400D08E9D8A9E9A670EAF6E948C948EAC9C22
:1011F400AC8AAC98AC84AB8EAB9CAB88B89612002E
:10120400136E8B8A4E0E126EEB0EE82EFED7122E44
:10121400FCD7000013C08CFF4E0E126EEB0EE82EAE
:10122400FED7122EFCD700008B9A4E0E126EEB0ED8
:10123400E82EFED7122EFCD700001200026E8B8A15
:101244004E0E016EEB0EE82EFED7012EFCD70000E9
:1012540002C08CFF4E0E016EEB0EE82EFED7012E5F
:10126400FCD700008B9A4E0E016EEB0EE82EFED7D3
:10127400012EFCD700001200DBEC08F00AEC08F0A9
:10128400010E146E000E58EC09F0800E146E000E60
:1012940058EC09F0010E166E1650D8A4100E176EF5
:1012A4005BEC08F054EF09F04DEF00F0156E15B04B
:1012B40002D08B9801D08B8814380F0B02EC09F004
:1012C40014500F0B02EC09F01200046E04B002D0AB
:1012D4008B9801D08B8803380F0B20EC09F0035056
:1012E4000F0B20EC09F012001B6A1C901C92000EDC
:0812F400F86E00013EEF09F065
:020000040030CA
:0E000000FF281F3CFFBB81FF0FC00FE00F4029
:00000001FF
