:0400000042EF00F0DB
:100008000B829EAA0AEF00F00CEF00F040EF00F020
:10001800AECF0AF0610E0A18D8A415EF00F017EF5A
:1000280000F028EF00F0010E026E000ED0EC08F090
:10003800C00E026E000ED0EC08F0610E026E010ECA
:10004800D0EC08F040EF00F0620E0A18D8A42FEFA9
:1000580000F031EF00F040EF00F0010E026E000EEC
:10006800D0EC08F0940E026E000ED0EC08F0620E90
:10007800026E010ED0EC08F00B921100EEEF08F0C2
:101000000045535031324620546573742044617456
:031010006100007C
:10101400030E086E080E076E770EE82EFED7072E15
:10102400FCD7082EFAD70000300E056E000EB2EC85
:1010340008F01A0E076EF80EE82EFED7072EFCD71E
:1010440000D0300E056E000EB2EC08F01A0E076EDA
:10105400F80EE82EFED7072EFCD700D0300E056E12
:10106400000EB2EC08F0020E056E000EB2EC08F0B1
:10107400060E056E000EB2EC08F00F0E056E000EA3
:10108400B2EC08F0280E056E000EB2EC08F0010E6A
:10109400056E000EB2EC08F0030E086E080E076E23
:1010A400770EE82EFED7072EFCD7082EFAD70000BD
:1010B4001200720ED36E000E0F013A6F000E3B6FDA
:1010C4009498949A000E956E8B988B9A000E8C6E61
:1010D400F28EF28CD08E9D8A9E9A670EAF6E948C9F
:1010E400948EAC9CAC8AAC98AC84AB8EAB9CAB8835
:1010F400B8961200000E096E8CEF08F00750092410
:10110400086E08C0F6FF0800F5CF05F0010EB2EC3A
:1011140008F0092A07500924086E08C0F6FF0800E1
:10112400F5500009D8A499EF08F09BEF08F080EF80
:1011340008F012005BEC08F00AEC08F0010E056EF2
:10114400000EB2EC08F0800E056E000EB2EC08F052
:10115400010E076E7CEC08F0AEEF08F042EF00F0F1
:10116400066E06B002D08B9801D08B8805380F0B21
:10117400C1EC08F005500F0BC1EC08F01200046E2E
:101184008B8AC80EE82EFED704C08CFFC80EE82E4A
:10119400FED78B9AC80EE82EFED71200036E03B05A
:1011A40002D08B9801D08B8802380F0BDFEC08F04B
:1011B40002500F0BDFEC08F01200016E8B8AC80E90
:1011C400E82EFED701C08CFFC80EE82EFED78B9AFE
:1011D400C80EE82EFED712000A6A0B900B92000E7E
:0C11E400F86E100EF76E00019CEF08F092
:020000040030CA
:0E000000FF281F3CFFBB81FF0FC00FE00F4029
:00000001FF
