:0400000042EF00F0DB
:100008000D829EAA0AEF00F00CEF00F040EF00F01E
:10001800AECF0CF0610E0C18D8A415EF00F017EF56
:1000280000F028EF00F0010E036E000EFDEC08F062
:10003800C00E036E000EFDEC08F0610E036E010E9B
:10004800FDEC08F040EF00F0620E0C18D8A42FEF7A
:1000580000F031EF00F040EF00F0010E036E000EEB
:10006800FDEC08F0940E036E000EFDEC08F0620E35
:10007800036E010EFDEC08F00D9211000CEF09F073
:101000000045535031324620546573742044617456
:031010006100007C
:10101400030E0A6E080E096E770EE82EFED7092E0F
:10102400FCD70A2EFAD70000300E076E000EEEEC45
:1010340008F01A0E096EF80EE82EFED7092EFCD71A
:1010440000D0300E076E000EEEEC08F01A0E096E9A
:10105400F80EE82EFED7092EFCD700D0300E076E0E
:10106400000EEEEC08F0020E076E000EEEEC08F037
:10107400060E076E000EEEEC08F00F0E076E000E63
:10108400EEEC08F0280E076E000EEEEC08F0010EF0
:10109400076E000EEEEC08F0030E0A6E080E096EE1
:1010A400770EE82EFED7092EFCD70A2EFAD70000B9
:1010B4001200720ED36E000E0F013A6F000E3B6FDA
:1010C4009498949A000E956E8B988B9A000E8C6E61
:1010D400F28EF28CD08E9D8A9E9A670EAF6E948C9F
:1010E400948EAC9CAC8AAC98AC84AB8EAB9CAB8835
:1010F400B8961200000E0B6E8CEF08F009500B240A
:101104000A6E0AC0F6FF0800F5CF07F0010EEEECF8
:1011140008F00B2A09500B240A6E0AC0F6FF0800D7
:10112400F5500009D8A499EF08F09BEF08F080EF80
:1011340008F01200066E8B8A4E0E056EEB0EE82E3A
:10114400FED7052EFCD7000006C08CFF4E0E056EA0
:10115400EB0EE82EFED7052EFCD700008B9A4E0E20
:10116400056EEB0EE82EFED7052EFCD7000012000C
:10117400026E8B8A4E0E016EEB0EE82EFED7012E08
:10118400FCD7000002C08CFF4E0E016EEB0EE82E61
:10119400FED7012EFCD700008B9A4E0E016EEB0E8B
:1011A400E82EFED7012EFCD7000012005BEC08F0FD
:1011B4000AEC08F0010E076E000EEEEC08F0800E4B
:1011C400076E000EEEEC08F0010E096E7CEC08F0E0
:1011D400EAEF08F042EF00F0086E08B002D08B98F6
:1011E40001D08B8807380F0B9CEC08F007500F0BCD
:1011F4009CEC08F01200046E04B002D08B9801D06D
:101204008B8803380F0BBAEC08F003500F0BBAECC1
:1012140008F012000C6A0D900D92000EF86E100E7C
:08122400F76E0001D8EF08F09D
:020000040030CA
:0E000000FF281F3CFFBB81FF0FC00FE00F4029
:00000001FF
